S016000066696E616C20636F6465203433352E737265638D
S11300000C942A000C943F000C943F000C943F0085
S11300100C943F000C943F000C943F000C943F0060
S11300200C943F000C943F000C943F000C943F0050
S11300300C943F000C943F000C943F000C943F0040
S11300400C943F000C943F000C943F000C943F0030
S11300500C943F0011241FBECFE5D8E0DEBFCDBF16
S113006010E0A0E6B0E0E0E6FAE002C005900D92F0
S1130070AE3BB107D9F70E9460010C942E050C9495
S1130080000011B880E280B984E086BF089584EA54
S113009086BF06B607FEFDCF089584E986BF08959E
S11300A083B984E886BF06B607FEFDCF089584ECC5
S11300B086BF06B607FEFDCF83B1089584E886BFE8
S11300C006B607FEFDCF83B10895982F92959F70D1
S11300D0990F292F220F220F920F8F70890F0895E5
S11300E09DEC899F912D112496959695969520E1E6
S11300F0929FA0011124990F292F220F220F920FF2
S1130100891B842B0895EF92FF920F931F93CF9333
S1130110DF93EC018B017A010E94470080ED0E947D
S1130120500080E00E9450000E94470081ED0E9430
S113013050000E9457000E946500F70180830E94CE
S113014057000E946500F80180830E945E000E94AF
S1130150650088830E944D00DF91CF911F910F911C
S1130160FF90EF9008951F93CF93DF93C82FD62F5E
S1130170142F0E94470080ED0E94500080E00E94EE
S11301805000812F0E9470000E9450008D2F0E9409
S113019070000E9450008C2F0E9470000E9450003A
S11301A00E944D00DF91CF911F910895CF93C82FE6
S11301B00E9447008EE40E9450008C2F88600E94A9
S11301C050000E944D00CF910895CF93C82F8460B2
S11301D00E94D60082E08A95F1F700C08C2F8B7FB5
S11301E00E94D60085E88A95F1F70000CF91089522
S11301F00E94E5000895CF93C82F807F0E94F800E5
S11302008C2F8295807F0E94F8008FE99FE00197F0
S1130210F1F700C00000CF910895CF93C82F807FDD
S113022081600E94F80020E1C29FC0011124816016
S11302300E94F800CF910895CF93DF93EC0103C09F
S113024021960E940D0188818111FACFDF91CF910F
S113025008952FE788E391E0215080409040E1F732
S113026000C0000080E30E94F80080E30E94F800D0
S113027080E30E94F80080E20E94F80088E20E9475
S1130280FB008CE00E94FB0081E00E94FB000895CB
S11302908AB38E7F8ABB80E487B986E886B90895DD
S11302A086B1806486B93699FECF84B195B108953C
S11302B081B3806881BB8AE685BD089583BD0895B6
S11302C0CF93DF93CDB7DEB764970FB6F894DEBF54
S11302D00FBECDBF0E9441000E9429010E94480127
S11302E00E94580181B3877F81BB81B3806181BB48
S11302F082B3886082BB82B38F7E82BB80E090E051
S11303000E94E204853A51F049E16AE184E10E94E5
S1130310B30065EA80E090E00E94EA0480E80E946D
S1130320FB0080E690E00E941C01839B17C080E0E4
S11303300E945E0182B38F7E82BB80EC0E94FB0030
S11303408DE690E00E941C012FEF81EE94E0215095
S113035080409040E1F700C00000E7CF0E945001C8
S11303608C01AE014C5E5F4FBE016D5E7F4FCE01CE
S113037042960E94830080EC0E94FB000C3221E034
S11303801207F8F48FEF0E945E0182B3806182BB92
S11303908C891F928F938B891F928F938A891F92C6
S11303A08F938FE790E09F938F93CE0101969F9355
S11303B08F930E942F020FB6F894DEBF0FBECDBFFD
S11303C040C00C3B1240F8F48AE50E945E0182B3FF
S11303D08F7E82BB8C891F928F938B891F928F9300
S11303E08A891F928F9384E990E09F938F93CE0123
S11303F001969F938F930E942F020FB6F894DEBF4D
S11304000FBECDBF1EC080E00E945E0182B38F7E0E
S113041082BB8C891F928F938B891F928F938A89B9
S11304201F928F9389EA90E09F938F93CE01019658
S11304309F938F930E942F020FB6F894DEBF0FBED6
S1130440CDBFCE0101960E941C019FEF2DEE82E0EC
S1130450915020408040E1F700C0000066CFAEE03C
S1130460B0E0E5E3F2E00C9405050D891E8986E011
S11304708C831A8309838FEF9FE79E838D83AE015C
S1130480475E5F4F6F89788DCE0101960E945102BD
S1130490EF81F885E00FF11F10822E96E4E00C94B2
S11304A02105ABE0B0E0E7E5F2E00C94F7046C0161
S11304B07B018A01FC0117821682838181FFCCC1F2
S11304C0CE0101963C01F6019381F70193FD8591DC
S11304D093FF81917F01882309F4BAC1853239F4ED
S11304E093FD859193FF81917F01853229F4B601B3
S11304F090E00E944804E7CF912C212C312CFFE19D
S1130500F315D8F08B3279F038F4803279F08332F5
S1130510A1F4232D20611DC08D3261F0803369F474
S1130520232D216016C0832D8260382EE32DE460D4
S11305303E2E2AC0F32DF8601DC037FC2DC020EDDF
S1130540280F2A3040F08E32B9F436FC81C1232DB5
S11305502064322E19C036FE06C08AE0989E200D13
S11305601124922E11C0EAE02E9E200D1124222E79
S1130570F32DF0623F2E08C08C3621F4832D806861
S1130580382E02C0883641F4F70193FD859193FF1C
S113059081917F018111B3CF982F9F7D9554933022
S11305A028F40C5F1F4F9FE399830DC0833631F00D
S11305B0833771F0833509F059C021C0F801808177
S11305C089830E5F1F4F88248394912C530113C099
S11305D02801F2E04F0E511CF801A080B18036FED4
S11305E003C0692D70E002C06FEF7FEFC5010E9468
S11305F03D044C018201F32DFF773F2E16C02801E4
S113060022E0420E511CF801A080B18036FE03C0E6
S1130610692D70E002C06FEF7FEFC5010E943204C4
S11306204C01F32DF0683F2E820133FC1BC0822D58
S113063090E088169906B0F4B60180E290E00E943A
S113064048042A94F4CFF50137FC859137FE819153
S11306505F01B60190E00E94480421102A9421E031
S1130660821A91088114910471F7E8C0843611F05C
S1130670893641F5F80137FE07C0608171818281B6
S113068093810C5F1F4F08C060817181072E000C9D
S1130690880B990B0E5F1F4FF32DFF763F2E97FFAC
S11306A009C090958095709561957F4F8F4F9F4FAE
S11306B0F0683F2E2AE030E0A3010E948404882ED3
S11306C0861845C0853731F4232D2F7EB22E2AE0BB
S11306D030E025C0932D997FB92E8F36C1F018F4E0
S11306E0883579F0B5C0803719F0883721F0B0C06B
S11306F0E92FE061BE2EB4FE0DC0FB2DF460BF2EC9
S113070009C034FE0AC0292F2660B22E06C028E094
S113071030E005C020E130E002C020E132E0F80121
S1130720B7FE07C060817181828193810C5F1F4F86
S113073006C06081718180E090E00E5F1F4FA301CD
S11307400E948404882E8618FB2DFF773F2E36FEE8
S11307500DC0232D2E7FA22E891458F434FE0BC015
S113076032FC09C0832D8E7EA82E05C0B82CA32C84
S113077003C0B82C01C0B92CA4FE0FC0FE01E80DC3
S1130780F11D8081803321F49A2D997EA92E09C010
S1130790A2FE06C0B394B39404C08A2D867809F0EF
S11307A0B394A3FC11C0A0FE06C0B21488F4280CB4
S11307B0922C9B180EC0B21460F4B60180E290E053
S11307C00E944804B394F7CFB21418F42B1802C053
S11307D0982C212CA4FE10C0B60180E390E00E9466
S11307E04804A2FE17C0A1FC03C088E790E002C041
S11307F088E590E0B6010CC08A2D867859F0A1FEF8
S113080002C08BE201C080E2A7FC8DE2B60190E059
S11308100E944804891438F4B60180E390E00E94F1
S113082048049A94F7CF8A94F301E80DF11D80816E
S1130830B60190E00E9448048110F5CF222009F40B
S113084042CEB60180E290E00E9448042A94F6CF9A
S1130850F6018681978102C08FEF9FEF2B96E2E12C
S11308600C941305FC010590615070400110D8F7F9
S1130870809590958E0F9F1F0895FC0161507040E4
S113088001900110D8F7809590958E0F9F1F0895C1
S11308900F931F93CF93DF93FB01238121FD03C0AB
S11308A08FEF9FEF2CC022FF16C046815781248111
S11308B035814217530744F4A081B1819D012F5F14
S11308C03F4F318320838C93268137812F5F3F4FA5
S11308D03783268314C08B01EC01FB010084F1856E
S11308E0E02D0995892BE1F6D80116968D919C91FE
S11308F01797019617969C938E931697CE01DF91C6
S1130900CF911F910F910895FA01AA27283051F130
S1130910203181F1E8946F936E7F6E5F7F4F8F4F2C
S11309209F4FAF4FB1E03ED0B4E03CD0670F781F8B
S1130930891F9A1FA11D680F791F8A1F911DA11D70
S11309406A0F711D811D911DA11D20D009F46894A9
S11309503F912AE0269F11243019305D3193DEF651
S1130960CF010895462F4770405D4193B3E00FD007
S1130970C9F7F6CF462F4F70405D4A3318F0495DF2
S113098031FD4052419302D0A9F7EACFB4E0A695D5
S11309909795879577956795BA95C9F700976105F7
S11309A0710508959B01AC010A2E0694579547954D
S11309B037952795BA95C9F7620F731F841F951F42
S11309C0A01D0895E199FECF9FBB8EBBE09A9927A5
S11309D08DB30895262FE199FECF9FBB8EBB2DBB0F
S11309E00FB6F894E29AE19A0FBE019608952F92F9
S11309F03F924F925F926F927F928F929F92AF92AB
S1130A00BF92CF92DF92EF92FF920F931F93CF93F7
S1130A10DF93CDB7DEB7CA1BDB0B0FB6F894DEBF8E
S1130A200FBECDBF09942A88398848885F846E84B4
S1130A307D848C849B84AA84B984C884DF80EE80FE
S1130A40FD800C811B81AA81B981CE0FD11D0FB607
S1130A50F894DEBF0FBECDBFED010895F894FFCF2B
S1130A60537472656574204C6967687400537973B4
S1130A7074656D204F46462020202020202000252C
S1130A803032643A253032643A25303264204E697B
S1130A9067687400253032643A253032643A253070
S1130AA032642044696D202000253032643A2530B8
S1110AB032643A2530326420446179202000FB
S9030000FC
